{
  "contractName": "Transmission",
  "abi": [
    {
      "constant": false,
      "inputs": [
        {
          "name": "_message",
          "type": "string"
        }
      ],
      "name": "_save",
      "outputs": [],
      "payable": false,
      "stateMutability": "nonpayable",
      "type": "function"
    }
  ],
  "bytecode": "0x608060405234801561001057600080fd5b506101c2806100206000396000f300608060405260043610610041576000357c0100000000000000000000000000000000000000000000000000000000900463ffffffff1680633646d02114610046575b600080fd5b34801561005257600080fd5b506100ad600480360381019080803590602001908201803590602001908080601f01602080910402602001604051908101604052809392919081815260200183838082843782019150505050505091929192905050506100af565b005b60008190806001815401808255809150509060018203906000526020600020016000909192909190915090805190602001906100ec9291906100f1565b505050565b828054600181600116156101000203166002900490600052602060002090601f016020900481019282601f1061013257805160ff1916838001178555610160565b82800160010185558215610160579182015b8281111561015f578251825591602001919060010190610144565b5b50905061016d9190610171565b5090565b61019391905b8082111561018f576000816000905550600101610177565b5090565b905600a165627a7a72305820783f313d70aafac7befc58b66c94a8ff1d83a3ebbf9da1482e28fd39172b3fd40029",
  "source": "pragma solidity ^0.4.23;\n\ncontract Transmission { \n    string[] dataStorage;\n\n    function _save(string _message) public {\n        dataStorage.push(_message);\n    }\n}\n",
  "sourcePath": "/Users/junhoyeo/Desktop/biss-blockchain/blockchain/contracts/Transmission.sol",
  "compiler": {
    "name": "solc",
    "version": "0.4.24+commit.e67f0147.Emscripten.clang"
  },
  "schemaVersion": "2.0.1",
  "updatedAt": "2018-10-26T17:01:16.560Z"
}